:060000000A128A11F62F1E
:100F260001348316031306083F38860008000A12A8
:100F36008A1194270A128A11831603138710080050
:100F46000A128A119A270A128A1100300A128A1185
:100F5600CC270A128A11F5003E307506031DB42F00
:100F6600B52FA82F8312031387141A30F4005E30AE
:100F7600F3006E30F200F20BBE2FF30BBE2FF40B14
:100F8600BE2F0000831203138710A82F0A128A119E
:100F96000028F1007108031DD12FD22FD72F8312FD
:100FA600031306083F39F52F3F3083120313060556
:100FB600F0003F3070060319E12FE22FE92F760883
:100FC6000319E62FE72FE92FF601D22F3F3006054A
:100FD600F0003F307006031DF12FF22FF42FF601BB
:100FE600F60A3F3008000A128A1193270A128A115C
:0A0FF600F60083010A128A11A32FEE
:08400000FF3FFF3FFF3FFF3FC0
:02400E00FB3F76
:00000001FF
