:060000000A128A11FC2F18
:100F8800831603138801831203138801831603133E
:100F9800061408000A128A11C4270A128A11F201DB
:100FA800F20A5030F000C330F1000130F002003096
:100FB800031CF103F102700A031DE62F710A031DD9
:100FC800E62FE72FD92F831203130618EC2FED2FE6
:100FD800F42F72080319F12FF22FF42FF201880968
:100FE800061CF72FF82FD52FD32F0A128A110028A5
:080FF80083010A128A11CE2FB9
:08400000FF3FFF3FFF3FFF3FC0
:02400E00FB3F76
:00000001FF
